{
  "_format": "hh-sol-artifact-1",
  "contractName": "VaultFactory",
  "sourceName": "contracts/VaultFactory.sol",
  "abi": [
    {
      "inputs": [
        {
          "internalType": "address",
          "name": "_vaultImplementation",
          "type": "address"
        }
      ],
      "stateMutability": "nonpayable",
      "type": "constructor"
    },
    {
      "anonymous": false,
      "inputs": [
        {
          "indexed": false,
          "internalType": "address",
          "name": "receiver",
          "type": "address"
        },
        {
          "indexed": false,
          "internalType": "uint256",
          "name": "amount",
          "type": "uint256"
        }
      ],
      "name": "FailedTransfer",
      "type": "event"
    },
    {
      "anonymous": false,
      "inputs": [
        {
          "indexed": true,
          "internalType": "address",
          "name": "previousOwner",
          "type": "address"
        },
        {
          "indexed": true,
          "internalType": "address",
          "name": "newOwner",
          "type": "address"
        }
      ],
      "name": "OwnershipTransferred",
      "type": "event"
    },
    {
      "anonymous": false,
      "inputs": [
        {
          "indexed": false,
          "internalType": "address",
          "name": "account",
          "type": "address"
        }
      ],
      "name": "Paused",
      "type": "event"
    },
    {
      "anonymous": false,
      "inputs": [
        {
          "indexed": false,
          "internalType": "address",
          "name": "account",
          "type": "address"
        }
      ],
      "name": "Unpaused",
      "type": "event"
    },
    {
      "anonymous": false,
      "inputs": [
        {
          "indexed": false,
          "internalType": "uint256",
          "name": "vaultId",
          "type": "uint256"
        },
        {
          "indexed": false,
          "internalType": "address",
          "name": "vaultAddress",
          "type": "address"
        },
        {
          "indexed": false,
          "internalType": "uint256",
          "name": "vaultImplementationVersion",
          "type": "uint256"
        },
        {
          "indexed": false,
          "internalType": "address",
          "name": "generalAdmin",
          "type": "address"
        },
        {
          "indexed": false,
          "internalType": "address",
          "name": "factoryAddress",
          "type": "address"
        },
        {
          "indexed": false,
          "internalType": "address",
          "name": "propertyOwner",
          "type": "address"
        },
        {
          "indexed": false,
          "internalType": "address",
          "name": "propertyRenter",
          "type": "address"
        },
        {
          "indexed": false,
          "internalType": "uint256",
          "name": "rentalPeriodEnd",
          "type": "uint256"
        },
        {
          "indexed": false,
          "internalType": "uint256",
          "name": "deposit",
          "type": "uint256"
        }
      ],
      "name": "VaultCreated",
      "type": "event"
    },
    {
      "inputs": [
        {
          "internalType": "uint256",
          "name": "deposit",
          "type": "uint256"
        },
        {
          "internalType": "address",
          "name": "renter",
          "type": "address"
        },
        {
          "internalType": "uint256",
          "name": "rentalPeriodEnd",
          "type": "uint256"
        }
      ],
      "name": "createNewVault",
      "outputs": [
        {
          "internalType": "address",
          "name": "vault",
          "type": "address"
        }
      ],
      "stateMutability": "nonpayable",
      "type": "function"
    },
    {
      "inputs": [
        {
          "internalType": "uint256",
          "name": "",
          "type": "uint256"
        }
      ],
      "name": "deployedVaults",
      "outputs": [
        {
          "internalType": "uint256",
          "name": "id",
          "type": "uint256"
        },
        {
          "internalType": "uint256",
          "name": "versionId",
          "type": "uint256"
        },
        {
          "internalType": "address",
          "name": "creator",
          "type": "address"
        },
        {
          "internalType": "address",
          "name": "renter",
          "type": "address"
        },
        {
          "internalType": "uint256",
          "name": "rentalPeriodEnd",
          "type": "uint256"
        },
        {
          "internalType": "uint256",
          "name": "deposit",
          "type": "uint256"
        },
        {
          "internalType": "address",
          "name": "deployedAddress",
          "type": "address"
        }
      ],
      "stateMutability": "view",
      "type": "function"
    },
    {
      "inputs": [],
      "name": "getDeployedVaults",
      "outputs": [
        {
          "components": [
            {
              "internalType": "uint256",
              "name": "id",
              "type": "uint256"
            },
            {
              "internalType": "uint256",
              "name": "versionId",
              "type": "uint256"
            },
            {
              "internalType": "address",
              "name": "creator",
              "type": "address"
            },
            {
              "internalType": "address",
              "name": "renter",
              "type": "address"
            },
            {
              "internalType": "uint256",
              "name": "rentalPeriodEnd",
              "type": "uint256"
            },
            {
              "internalType": "uint256",
              "name": "deposit",
              "type": "uint256"
            },
            {
              "internalType": "address",
              "name": "deployedAddress",
              "type": "address"
            }
          ],
          "internalType": "struct VaultFactory.Vault[]",
          "name": "",
          "type": "tuple[]"
        }
      ],
      "stateMutability": "view",
      "type": "function"
    },
    {
      "inputs": [],
      "name": "latestVaultImplementationVersionId",
      "outputs": [
        {
          "internalType": "uint256",
          "name": "",
          "type": "uint256"
        }
      ],
      "stateMutability": "view",
      "type": "function"
    },
    {
      "inputs": [],
      "name": "owner",
      "outputs": [
        {
          "internalType": "address",
          "name": "",
          "type": "address"
        }
      ],
      "stateMutability": "view",
      "type": "function"
    },
    {
      "inputs": [],
      "name": "pause",
      "outputs": [],
      "stateMutability": "nonpayable",
      "type": "function"
    },
    {
      "inputs": [],
      "name": "paused",
      "outputs": [
        {
          "internalType": "bool",
          "name": "",
          "type": "bool"
        }
      ],
      "stateMutability": "view",
      "type": "function"
    },
    {
      "inputs": [],
      "name": "renounceOwnership",
      "outputs": [],
      "stateMutability": "nonpayable",
      "type": "function"
    },
    {
      "inputs": [
        {
          "internalType": "address",
          "name": "_adminAddress",
          "type": "address"
        }
      ],
      "name": "setAdmin",
      "outputs": [],
      "stateMutability": "nonpayable",
      "type": "function"
    },
    {
      "inputs": [
        {
          "internalType": "address",
          "name": "_vaultImplementation",
          "type": "address"
        }
      ],
      "name": "setNewVaultImplementation",
      "outputs": [],
      "stateMutability": "nonpayable",
      "type": "function"
    },
    {
      "inputs": [
        {
          "internalType": "address",
          "name": "newOwner",
          "type": "address"
        }
      ],
      "name": "transferOwnership",
      "outputs": [],
      "stateMutability": "nonpayable",
      "type": "function"
    },
    {
      "inputs": [],
      "name": "unpause",
      "outputs": [],
      "stateMutability": "nonpayable",
      "type": "function"
    },
    {
      "inputs": [],
      "name": "vaultId",
      "outputs": [
        {
          "internalType": "uint256",
          "name": "",
          "type": "uint256"
        }
      ],
      "stateMutability": "view",
      "type": "function"
    },
    {
      "inputs": [
        {
          "internalType": "uint256",
          "name": "",
          "type": "uint256"
        }
      ],
      "name": "vaultImplementations",
      "outputs": [
        {
          "internalType": "uint256",
          "name": "id",
          "type": "uint256"
        },
        {
          "internalType": "address",
          "name": "deployedAddress",
          "type": "address"
        }
      ],
      "stateMutability": "view",
      "type": "function"
    },
    {
      "inputs": [
        {
          "internalType": "address",
          "name": "receiver",
          "type": "address"
        }
      ],
      "name": "withdrawFunds",
      "outputs": [],
      "stateMutability": "nonpayable",
      "type": "function"
    }
  ],
  "bytecode": "0x608060405260006003553480156200001657600080fd5b5060405162001e7b38038062001e7b83398181016040528101906200003c91906200025f565b60008060006101000a81548160ff021916908315150217905550620000766200006a6200012860201b60201c565b6200013060201b60201c565b6002604051806040016040528060015481526020018373ffffffffffffffffffffffffffffffffffffffff1681525090806001815401808255809150506001900390600052602060002090600202016000909190919091506000820151816000015560208201518160010160006101000a81548173ffffffffffffffffffffffffffffffffffffffff021916908373ffffffffffffffffffffffffffffffffffffffff16021790555050505062000291565b600033905090565b60008060019054906101000a900473ffffffffffffffffffffffffffffffffffffffff16905081600060016101000a81548173ffffffffffffffffffffffffffffffffffffffff021916908373ffffffffffffffffffffffffffffffffffffffff1602179055508173ffffffffffffffffffffffffffffffffffffffff168173ffffffffffffffffffffffffffffffffffffffff167f8be0079c531659141344cd1fd0a4f28419497f9722a3daafe3b4186f6b6457e060405160405180910390a35050565b600080fd5b600073ffffffffffffffffffffffffffffffffffffffff82169050919050565b60006200022782620001fa565b9050919050565b62000239816200021a565b81146200024557600080fd5b50565b60008151905062000259816200022e565b92915050565b600060208284031215620002785762000277620001f5565b5b6000620002888482850162000248565b91505092915050565b611bda80620002a16000396000f3fe608060405234801561001057600080fd5b50600436106100f55760003560e01c806368742da61161009757806388d62a991161006657806388d62a99146102415780638da5cb5b1461025f5780639dbc7d921461027d578063f2fde38b14610299576100f5565b806368742da6146101f5578063704b6c0214610211578063715018a61461022d5780638456cb5914610237576100f5565b806333194c0a116100d357806333194c0a1461017f5780633f4ba83a1461019d5780635c975abb146101a75780636015dfe6146101c5576100f5565b80630ac214df146100fa578063135a541d1461013057806320d5f31414610161575b600080fd5b610114600480360381019061010f91906111cd565b6102b5565b604051610127979695949392919061124a565b60405180910390f35b61014a600480360381019061014591906111cd565b610367565b6040516101589291906112b9565b60405180910390f35b6101696103bb565b604051610176919061143d565b60405180910390f35b610187610544565b604051610194919061145f565b60405180910390f35b6101a561054a565b005b6101af6105d1565b6040516101bc9190611495565b60405180910390f35b6101df60048036038101906101da91906114dc565b6105e7565b6040516101ec919061152f565b60405180910390f35b61020f600480360381019061020a919061154a565b61094f565b005b61022b6004803603810190610226919061154a565b6109d1565b005b610235610a52565b005b61023f610a66565b005b610249610aed565b604051610256919061145f565b60405180910390f35b610267610af3565b604051610274919061152f565b60405180910390f35b6102976004803603810190610292919061154a565b610b1c565b005b6102b360048036038101906102ae919061154a565b610c58565b005b600481815481106102c557600080fd5b90600052602060002090600702016000915090508060000154908060010154908060020160009054906101000a900473ffffffffffffffffffffffffffffffffffffffff16908060030160009054906101000a900473ffffffffffffffffffffffffffffffffffffffff16908060040154908060050154908060060160009054906101000a900473ffffffffffffffffffffffffffffffffffffffff16905087565b6002818154811061037757600080fd5b90600052602060002090600202016000915090508060000154908060010160009054906101000a900473ffffffffffffffffffffffffffffffffffffffff16905082565b60606004805480602002602001604051908101604052809291908181526020016000905b8282101561053b57838290600052602060002090600702016040518060e001604052908160008201548152602001600182015481526020016002820160009054906101000a900473ffffffffffffffffffffffffffffffffffffffff1673ffffffffffffffffffffffffffffffffffffffff1673ffffffffffffffffffffffffffffffffffffffff1681526020016003820160009054906101000a900473ffffffffffffffffffffffffffffffffffffffff1673ffffffffffffffffffffffffffffffffffffffff1673ffffffffffffffffffffffffffffffffffffffff16815260200160048201548152602001600582015481526020016006820160009054906101000a900473ffffffffffffffffffffffffffffffffffffffff1673ffffffffffffffffffffffffffffffffffffffff1673ffffffffffffffffffffffffffffffffffffffff1681525050815260200190600101906103df565b50505050905090565b60035481565b610552610af3565b73ffffffffffffffffffffffffffffffffffffffff163373ffffffffffffffffffffffffffffffffffffffff16146105bf576040517f08c379a00000000000000000000000000000000000000000000000000000000081526004016105b6906115d4565b60405180910390fd5b6105c7610cdb565b6105cf610d24565b565b60008060009054906101000a900460ff16905090565b60006105f1610d86565b6000600260015481548110610609576106086115f4565b5b906000526020600020906002020160010160009054906101000a900473ffffffffffffffffffffffffffffffffffffffff169050600061064882610dd0565b90508073ffffffffffffffffffffffffffffffffffffffff166330dc99c16040518060e00160405280610679610af3565b73ffffffffffffffffffffffffffffffffffffffff168152602001600154815260200160035481526020013373ffffffffffffffffffffffffffffffffffffffff1681526020018873ffffffffffffffffffffffffffffffffffffffff168152602001878152602001898152506040518263ffffffff1660e01b815260040161070291906116b1565b600060405180830381600087803b15801561071c57600080fd5b505af1158015610730573d6000803e3d6000fd5b5050505060046040518060e00160405280600354815260200160015481526020013373ffffffffffffffffffffffffffffffffffffffff1681526020018773ffffffffffffffffffffffffffffffffffffffff1681526020018681526020018881526020018373ffffffffffffffffffffffffffffffffffffffff168152509080600181540180825580915050600190039060005260206000209060070201600090919091909150600082015181600001556020820151816001015560408201518160020160006101000a81548173ffffffffffffffffffffffffffffffffffffffff021916908373ffffffffffffffffffffffffffffffffffffffff16021790555060608201518160030160006101000a81548173ffffffffffffffffffffffffffffffffffffffff021916908373ffffffffffffffffffffffffffffffffffffffff1602179055506080820151816004015560a0820151816005015560c08201518160060160006101000a81548173ffffffffffffffffffffffffffffffffffffffff021916908373ffffffffffffffffffffffffffffffffffffffff16021790555050507f3e78502ec77da2224acb6b4038b1914bb1015f1b371aaf5a4c98c62a1ea089cf60035482600154610907610af3565b30338b8b8e6040516109219998979695949392919061172b565b60405180910390a160016003600082825461093c91906117e7565b9250508190555080925050509392505050565b610957610af3565b73ffffffffffffffffffffffffffffffffffffffff163373ffffffffffffffffffffffffffffffffffffffff16146109c4576040517f08c379a00000000000000000000000000000000000000000000000000000000081526004016109bb906115d4565b60405180910390fd5b6109ce8147610ea4565b50565b6109d9610af3565b73ffffffffffffffffffffffffffffffffffffffff163373ffffffffffffffffffffffffffffffffffffffff1614610a46576040517f08c379a0000000000000000000000000000000000000000000000000000000008152600401610a3d906115d4565b60405180910390fd5b610a4f81610c58565b50565b610a5a610fe5565b610a646000611063565b565b610a6e610af3565b73ffffffffffffffffffffffffffffffffffffffff163373ffffffffffffffffffffffffffffffffffffffff1614610adb576040517f08c379a0000000000000000000000000000000000000000000000000000000008152600401610ad2906115d4565b60405180910390fd5b610ae3610d86565b610aeb611128565b565b60015481565b60008060019054906101000a900473ffffffffffffffffffffffffffffffffffffffff16905090565b610b24610af3565b73ffffffffffffffffffffffffffffffffffffffff163373ffffffffffffffffffffffffffffffffffffffff1614610b91576040517f08c379a0000000000000000000000000000000000000000000000000000000008152600401610b88906115d4565b60405180910390fd5b6001806000828254610ba391906117e7565b925050819055506002604051806040016040528060015481526020018373ffffffffffffffffffffffffffffffffffffffff1681525090806001815401808255809150506001900390600052602060002090600202016000909190919091506000820151816000015560208201518160010160006101000a81548173ffffffffffffffffffffffffffffffffffffffff021916908373ffffffffffffffffffffffffffffffffffffffff160217905550505050565b610c60610fe5565b600073ffffffffffffffffffffffffffffffffffffffff168173ffffffffffffffffffffffffffffffffffffffff1603610ccf576040517f08c379a0000000000000000000000000000000000000000000000000000000008152600401610cc69061188d565b60405180910390fd5b610cd881611063565b50565b610ce36105d1565b610d22576040517f08c379a0000000000000000000000000000000000000000000000000000000008152600401610d19906118f9565b60405180910390fd5b565b610d2c610cdb565b60008060006101000a81548160ff0219169083151502179055507f5db9ee0a495bf2e6ff9c91a7834c1ba4fdd244a5e8aa4e537bd38aeae4b073aa610d6f61118a565b604051610d7c919061152f565b60405180910390a1565b610d8e6105d1565b15610dce576040517f08c379a0000000000000000000000000000000000000000000000000000000008152600401610dc590611965565b60405180910390fd5b565b60006040517f3d602d80600a3d3981f3363d3d373d3d3d363d7300000000000000000000000081528260601b60148201527f5af43d82803e903d91602b57fd5bf3000000000000000000000000000000000060288201526037816000f0915050600073ffffffffffffffffffffffffffffffffffffffff168173ffffffffffffffffffffffffffffffffffffffff1603610e9f576040517f08c379a0000000000000000000000000000000000000000000000000000000008152600401610e96906119d1565b60405180910390fd5b919050565b600047905081811015610ef3576000610ef2576040517f08c379a0000000000000000000000000000000000000000000000000000000008152600401610ee990611a3d565b60405180910390fd5b5b60008373ffffffffffffffffffffffffffffffffffffffff1683604051610f1990611a8e565b60006040518083038185875af1925050503d8060008114610f56576040519150601f19603f3d011682016040523d82523d6000602084013e610f5b565b606091505b5050905080610fdf577f3506b32cea6b36a739c1c2a71a9e1b3d6222104389c07219059fa6eb6d2e05638484604051610f95929190611aa3565b60405180910390a16000610fde576040517f08c379a0000000000000000000000000000000000000000000000000000000008152600401610fd590611b18565b60405180910390fd5b5b50505050565b610fed61118a565b73ffffffffffffffffffffffffffffffffffffffff1661100b610af3565b73ffffffffffffffffffffffffffffffffffffffff1614611061576040517f08c379a000000000000000000000000000000000000000000000000000000000815260040161105890611b84565b60405180910390fd5b565b60008060019054906101000a900473ffffffffffffffffffffffffffffffffffffffff16905081600060016101000a81548173ffffffffffffffffffffffffffffffffffffffff021916908373ffffffffffffffffffffffffffffffffffffffff1602179055508173ffffffffffffffffffffffffffffffffffffffff168173ffffffffffffffffffffffffffffffffffffffff167f8be0079c531659141344cd1fd0a4f28419497f9722a3daafe3b4186f6b6457e060405160405180910390a35050565b611130610d86565b60016000806101000a81548160ff0219169083151502179055507f62e78cea01bee320cd4e420270b5ea74000d11b0c9f74754ebdbfc544b05a25861117361118a565b604051611180919061152f565b60405180910390a1565b600033905090565b600080fd5b6000819050919050565b6111aa81611197565b81146111b557600080fd5b50565b6000813590506111c7816111a1565b92915050565b6000602082840312156111e3576111e2611192565b5b60006111f1848285016111b8565b91505092915050565b61120381611197565b82525050565b600073ffffffffffffffffffffffffffffffffffffffff82169050919050565b600061123482611209565b9050919050565b61124481611229565b82525050565b600060e08201905061125f600083018a6111fa565b61126c60208301896111fa565b611279604083018861123b565b611286606083018761123b565b61129360808301866111fa565b6112a060a08301856111fa565b6112ad60c083018461123b565b98975050505050505050565b60006040820190506112ce60008301856111fa565b6112db602083018461123b565b9392505050565b600081519050919050565b600082825260208201905092915050565b6000819050602082019050919050565b61131781611197565b82525050565b61132681611229565b82525050565b60e082016000820151611342600085018261130e565b506020820151611355602085018261130e565b506040820151611368604085018261131d565b50606082015161137b606085018261131d565b50608082015161138e608085018261130e565b5060a08201516113a160a085018261130e565b5060c08201516113b460c085018261131d565b50505050565b60006113c6838361132c565b60e08301905092915050565b6000602082019050919050565b60006113ea826112e2565b6113f481856112ed565b93506113ff836112fe565b8060005b8381101561143057815161141788826113ba565b9750611422836113d2565b925050600181019050611403565b5085935050505092915050565b6000602082019050818103600083015261145781846113df565b905092915050565b600060208201905061147460008301846111fa565b92915050565b60008115159050919050565b61148f8161147a565b82525050565b60006020820190506114aa6000830184611486565b92915050565b6114b981611229565b81146114c457600080fd5b50565b6000813590506114d6816114b0565b92915050565b6000806000606084860312156114f5576114f4611192565b5b6000611503868287016111b8565b9350506020611514868287016114c7565b9250506040611525868287016111b8565b9150509250925092565b6000602082019050611544600083018461123b565b92915050565b6000602082840312156115605761155f611192565b5b600061156e848285016114c7565b91505092915050565b600082825260208201905092915050565b7f43616c6c6572206973206e6f74207468652061646d696e000000000000000000600082015250565b60006115be601783611577565b91506115c982611588565b602082019050919050565b600060208201905081810360008301526115ed816115b1565b9050919050565b7f4e487b7100000000000000000000000000000000000000000000000000000000600052603260045260246000fd5b60e082016000820151611639600085018261131d565b50602082015161164c602085018261130e565b50604082015161165f604085018261130e565b506060820151611672606085018261131d565b506080820151611685608085018261131d565b5060a082015161169860a085018261130e565b5060c08201516116ab60c085018261130e565b50505050565b600060e0820190506116c66000830184611623565b92915050565b6000819050919050565b60006116f16116ec6116e784611209565b6116cc565b611209565b9050919050565b6000611703826116d6565b9050919050565b6000611715826116f8565b9050919050565b6117258161170a565b82525050565b600061012082019050611741600083018c6111fa565b61174e602083018b61171c565b61175b604083018a6111fa565b611768606083018961123b565b611775608083018861123b565b61178260a083018761123b565b61178f60c083018661123b565b61179c60e08301856111fa565b6117aa6101008301846111fa565b9a9950505050505050505050565b7f4e487b7100000000000000000000000000000000000000000000000000000000600052601160045260246000fd5b60006117f282611197565b91506117fd83611197565b9250828201905080821115611815576118146117b8565b5b92915050565b7f4f776e61626c653a206e6577206f776e657220697320746865207a65726f206160008201527f6464726573730000000000000000000000000000000000000000000000000000602082015250565b6000611877602683611577565b91506118828261181b565b604082019050919050565b600060208201905081810360008301526118a68161186a565b9050919050565b7f5061757361626c653a206e6f7420706175736564000000000000000000000000600082015250565b60006118e3601483611577565b91506118ee826118ad565b602082019050919050565b60006020820190508181036000830152611912816118d6565b9050919050565b7f5061757361626c653a2070617573656400000000000000000000000000000000600082015250565b600061194f601083611577565b915061195a82611919565b602082019050919050565b6000602082019050818103600083015261197e81611942565b9050919050565b7f455243313136373a20637265617465206661696c656400000000000000000000600082015250565b60006119bb601683611577565b91506119c682611985565b602082019050919050565b600060208201905081810360008301526119ea816119ae565b9050919050565b7f4e6f7420656e6f75676820696e20636f6e74726163742062616c616e63650000600082015250565b6000611a27601e83611577565b9150611a32826119f1565b602082019050919050565b60006020820190508181036000830152611a5681611a1a565b9050919050565b600081905092915050565b50565b6000611a78600083611a5d565b9150611a8382611a68565b600082019050919050565b6000611a9982611a6b565b9150819050919050565b6000604082019050611ab8600083018561123b565b611ac560208301846111fa565b9392505050565b7f5472616e73666572206661696c65642e00000000000000000000000000000000600082015250565b6000611b02601083611577565b9150611b0d82611acc565b602082019050919050565b60006020820190508181036000830152611b3181611af5565b9050919050565b7f4f776e61626c653a2063616c6c6572206973206e6f7420746865206f776e6572600082015250565b6000611b6e602083611577565b9150611b7982611b38565b602082019050919050565b60006020820190508181036000830152611b9d81611b61565b905091905056fea264697066735822122045db3412bb88accde6215e87a725c0a9bd6ae4315269cfc6939c1527434bbd4864736f6c63430008110033",
  "linkReferences": {},
  "deployedLinkReferences": {}
}