{
  "_format": "hh-sol-artifact-1",
  "contractName": "VaultImplementation",
  "sourceName": "contracts/VaultImplementation.sol",
  "abi": [
    {
      "inputs": [],
      "stateMutability": "nonpayable",
      "type": "constructor"
    },
    {
      "anonymous": false,
      "inputs": [
        {
          "indexed": false,
          "internalType": "uint256",
          "name": "vaultId",
          "type": "uint256"
        },
        {
          "indexed": false,
          "internalType": "address",
          "name": "propertyOwner",
          "type": "address"
        },
        {
          "indexed": false,
          "internalType": "address",
          "name": "propertyRenter",
          "type": "address"
        },
        {
          "indexed": false,
          "internalType": "uint256",
          "name": "initialDeposit",
          "type": "uint256"
        },
        {
          "indexed": false,
          "internalType": "uint256",
          "name": "acceptedAmount",
          "type": "uint256"
        }
      ],
      "name": "AmountToReturnAccepted",
      "type": "event"
    },
    {
      "anonymous": false,
      "inputs": [
        {
          "indexed": false,
          "internalType": "uint256",
          "name": "vaultId",
          "type": "uint256"
        },
        {
          "indexed": false,
          "internalType": "address",
          "name": "propertyOwner",
          "type": "address"
        },
        {
          "indexed": false,
          "internalType": "address",
          "name": "propertyRenter",
          "type": "address"
        },
        {
          "indexed": false,
          "internalType": "uint256",
          "name": "initialDeposit",
          "type": "uint256"
        },
        {
          "indexed": false,
          "internalType": "uint256",
          "name": "rejectedAmount",
          "type": "uint256"
        }
      ],
      "name": "AmountToReturnRejected",
      "type": "event"
    },
    {
      "anonymous": false,
      "inputs": [
        {
          "indexed": false,
          "internalType": "uint256",
          "name": "vaultId",
          "type": "uint256"
        },
        {
          "indexed": false,
          "internalType": "address",
          "name": "propertyOwner",
          "type": "address"
        },
        {
          "indexed": false,
          "internalType": "address",
          "name": "propertyRenter",
          "type": "address"
        },
        {
          "indexed": false,
          "internalType": "uint256",
          "name": "initialDeposit",
          "type": "uint256"
        },
        {
          "indexed": false,
          "internalType": "uint256",
          "name": "previousAmount",
          "type": "uint256"
        },
        {
          "indexed": false,
          "internalType": "uint256",
          "name": "newAmount",
          "type": "uint256"
        }
      ],
      "name": "AmountToReturnUpdate",
      "type": "event"
    },
    {
      "anonymous": false,
      "inputs": [
        {
          "indexed": false,
          "internalType": "uint256",
          "name": "vaultId",
          "type": "uint256"
        },
        {
          "indexed": false,
          "internalType": "address",
          "name": "propertyOwner",
          "type": "address"
        },
        {
          "indexed": false,
          "internalType": "address",
          "name": "propertyRenter",
          "type": "address"
        },
        {
          "indexed": false,
          "internalType": "uint256",
          "name": "deposit",
          "type": "uint256"
        }
      ],
      "name": "DepositStored",
      "type": "event"
    },
    {
      "anonymous": false,
      "inputs": [
        {
          "indexed": false,
          "internalType": "address",
          "name": "receiver",
          "type": "address"
        },
        {
          "indexed": false,
          "internalType": "uint256",
          "name": "amount",
          "type": "uint256"
        }
      ],
      "name": "FailedTransfer",
      "type": "event"
    },
    {
      "anonymous": false,
      "inputs": [
        {
          "indexed": false,
          "internalType": "uint256",
          "name": "vaultId",
          "type": "uint256"
        },
        {
          "indexed": false,
          "internalType": "address",
          "name": "propertyOwner",
          "type": "address"
        },
        {
          "indexed": false,
          "internalType": "address",
          "name": "propertyRenter",
          "type": "address"
        },
        {
          "indexed": false,
          "internalType": "uint256",
          "name": "initialDeposit",
          "type": "uint256"
        },
        {
          "indexed": false,
          "internalType": "uint256",
          "name": "ownerDepositChunk",
          "type": "uint256"
        }
      ],
      "name": "OwnerDepositChunkReturned",
      "type": "event"
    },
    {
      "anonymous": false,
      "inputs": [
        {
          "indexed": false,
          "internalType": "address",
          "name": "account",
          "type": "address"
        }
      ],
      "name": "Paused",
      "type": "event"
    },
    {
      "anonymous": false,
      "inputs": [
        {
          "indexed": false,
          "internalType": "address",
          "name": "sender",
          "type": "address"
        },
        {
          "indexed": false,
          "internalType": "uint256",
          "name": "amount",
          "type": "uint256"
        }
      ],
      "name": "Received",
      "type": "event"
    },
    {
      "anonymous": false,
      "inputs": [
        {
          "indexed": false,
          "internalType": "uint256",
          "name": "vaultId",
          "type": "uint256"
        },
        {
          "indexed": false,
          "internalType": "address",
          "name": "propertyOwner",
          "type": "address"
        },
        {
          "indexed": false,
          "internalType": "address",
          "name": "propertyRenter",
          "type": "address"
        },
        {
          "indexed": false,
          "internalType": "uint256",
          "name": "initialDeposit",
          "type": "uint256"
        },
        {
          "indexed": false,
          "internalType": "uint256",
          "name": "renterDepositChunk",
          "type": "uint256"
        }
      ],
      "name": "RenterDepositChunkReturned",
      "type": "event"
    },
    {
      "anonymous": false,
      "inputs": [
        {
          "indexed": false,
          "internalType": "address",
          "name": "account",
          "type": "address"
        }
      ],
      "name": "Unpaused",
      "type": "event"
    },
    {
      "stateMutability": "payable",
      "type": "fallback"
    },
    {
      "inputs": [],
      "name": "acceptProposedAmount",
      "outputs": [],
      "stateMutability": "nonpayable",
      "type": "function"
    },
    {
      "inputs": [],
      "name": "amountToReturn",
      "outputs": [
        {
          "internalType": "uint256",
          "name": "",
          "type": "uint256"
        }
      ],
      "stateMutability": "view",
      "type": "function"
    },
    {
      "inputs": [],
      "name": "claimOwnerDeposit",
      "outputs": [],
      "stateMutability": "nonpayable",
      "type": "function"
    },
    {
      "inputs": [],
      "name": "claimRenterDeposit",
      "outputs": [],
      "stateMutability": "nonpayable",
      "type": "function"
    },
    {
      "inputs": [],
      "name": "deposit",
      "outputs": [
        {
          "internalType": "uint256",
          "name": "",
          "type": "uint256"
        }
      ],
      "stateMutability": "view",
      "type": "function"
    },
    {
      "inputs": [],
      "name": "factory",
      "outputs": [
        {
          "internalType": "address",
          "name": "",
          "type": "address"
        }
      ],
      "stateMutability": "view",
      "type": "function"
    },
    {
      "inputs": [],
      "name": "generalAdmin",
      "outputs": [
        {
          "internalType": "address",
          "name": "",
          "type": "address"
        }
      ],
      "stateMutability": "view",
      "type": "function"
    },
    {
      "inputs": [],
      "name": "getVaultDetails",
      "outputs": [
        {
          "components": [
            {
              "internalType": "uint256",
              "name": "vaultId",
              "type": "uint256"
            },
            {
              "internalType": "address",
              "name": "propertyOwner",
              "type": "address"
            },
            {
              "internalType": "address",
              "name": "propertyRenter",
              "type": "address"
            },
            {
              "internalType": "uint256",
              "name": "rentalPeriodEnd",
              "type": "uint256"
            },
            {
              "internalType": "uint256",
              "name": "deposit",
              "type": "uint256"
            },
            {
              "internalType": "address",
              "name": "deployedAddress",
              "type": "address"
            },
            {
              "internalType": "uint256",
              "name": "amountToReturn",
              "type": "uint256"
            },
            {
              "internalType": "bool",
              "name": "isDepositStored",
              "type": "bool"
            },
            {
              "internalType": "bool",
              "name": "isAmountAccepted",
              "type": "bool"
            },
            {
              "internalType": "bool",
              "name": "isRenterChunkReturned",
              "type": "bool"
            },
            {
              "internalType": "bool",
              "name": "isOwnerChunkReturned",
              "type": "bool"
            }
          ],
          "internalType": "struct VaultImplementation.VaultDetails",
          "name": "",
          "type": "tuple"
        }
      ],
      "stateMutability": "view",
      "type": "function"
    },
    {
      "inputs": [
        {
          "components": [
            {
              "internalType": "address",
              "name": "_factoryOwner",
              "type": "address"
            },
            {
              "internalType": "uint256",
              "name": "_vaultImplementationVersion",
              "type": "uint256"
            },
            {
              "internalType": "uint256",
              "name": "_vaultId",
              "type": "uint256"
            },
            {
              "internalType": "address",
              "name": "_propertyOwner",
              "type": "address"
            },
            {
              "internalType": "address",
              "name": "_propertyRenter",
              "type": "address"
            },
            {
              "internalType": "uint256",
              "name": "_rentalPeriodEnd",
              "type": "uint256"
            },
            {
              "internalType": "uint256",
              "name": "_deposit",
              "type": "uint256"
            }
          ],
          "internalType": "struct VaultImplementation.Initialization",
          "name": "initialization",
          "type": "tuple"
        }
      ],
      "name": "initialize",
      "outputs": [],
      "stateMutability": "nonpayable",
      "type": "function"
    },
    {
      "inputs": [],
      "name": "isAmountAccepted",
      "outputs": [
        {
          "internalType": "bool",
          "name": "",
          "type": "bool"
        }
      ],
      "stateMutability": "view",
      "type": "function"
    },
    {
      "inputs": [],
      "name": "isDepositStored",
      "outputs": [
        {
          "internalType": "bool",
          "name": "",
          "type": "bool"
        }
      ],
      "stateMutability": "view",
      "type": "function"
    },
    {
      "inputs": [],
      "name": "isOwnerChunkReturned",
      "outputs": [
        {
          "internalType": "bool",
          "name": "",
          "type": "bool"
        }
      ],
      "stateMutability": "view",
      "type": "function"
    },
    {
      "inputs": [],
      "name": "isRenterChunkReturned",
      "outputs": [
        {
          "internalType": "bool",
          "name": "",
          "type": "bool"
        }
      ],
      "stateMutability": "view",
      "type": "function"
    },
    {
      "inputs": [],
      "name": "pause",
      "outputs": [],
      "stateMutability": "nonpayable",
      "type": "function"
    },
    {
      "inputs": [],
      "name": "paused",
      "outputs": [
        {
          "internalType": "bool",
          "name": "",
          "type": "bool"
        }
      ],
      "stateMutability": "view",
      "type": "function"
    },
    {
      "inputs": [],
      "name": "propertyOwner",
      "outputs": [
        {
          "internalType": "address",
          "name": "",
          "type": "address"
        }
      ],
      "stateMutability": "view",
      "type": "function"
    },
    {
      "inputs": [],
      "name": "propertyRenter",
      "outputs": [
        {
          "internalType": "address",
          "name": "",
          "type": "address"
        }
      ],
      "stateMutability": "view",
      "type": "function"
    },
    {
      "inputs": [],
      "name": "rejectProposedAmount",
      "outputs": [],
      "stateMutability": "nonpayable",
      "type": "function"
    },
    {
      "inputs": [],
      "name": "rentalPeriodEnd",
      "outputs": [
        {
          "internalType": "uint256",
          "name": "",
          "type": "uint256"
        }
      ],
      "stateMutability": "view",
      "type": "function"
    },
    {
      "inputs": [
        {
          "internalType": "uint256",
          "name": "proposedAmount",
          "type": "uint256"
        }
      ],
      "name": "setAmountToReturn",
      "outputs": [],
      "stateMutability": "nonpayable",
      "type": "function"
    },
    {
      "inputs": [],
      "name": "storeDeposit",
      "outputs": [],
      "stateMutability": "payable",
      "type": "function"
    },
    {
      "inputs": [],
      "name": "unpause",
      "outputs": [],
      "stateMutability": "nonpayable",
      "type": "function"
    },
    {
      "inputs": [],
      "name": "vaultId",
      "outputs": [
        {
          "internalType": "uint256",
          "name": "",
          "type": "uint256"
        }
      ],
      "stateMutability": "view",
      "type": "function"
    },
    {
      "inputs": [],
      "name": "vaultImplementationVersion",
      "outputs": [
        {
          "internalType": "uint256",
          "name": "",
          "type": "uint256"
        }
      ],
      "stateMutability": "view",
      "type": "function"
    },
    {
      "stateMutability": "payable",
      "type": "receive"
    }
  ],
  "bytecode": "0x608060405234801561001057600080fd5b5060008060006101000a81548160ff0219169083151502179055506001600060016101000a81548160ff021916908315150217905550612aa0806100556000396000f3fe60806040526004361061014f5760003560e01c80639f7201b2116100b6578063e398069a1161006f578063e398069a14610435578063e500590114610460578063ecea2d411461048b578063f0ab569b146104b6578063f446c38f146104e1578063feaa09941461050c5761018f565b80639f7201b214610368578063a551ca5f14610393578063a9c71771146103be578063c3ff81b3146103d5578063c45a0155146103df578063d0e30db01461040a5761018f565b80635c975abb116101085780635c975abb146102a257806360d7c70b146102cd5780637116fe30146102f8578063779584f3146103235780637edfb81a1461033a5780638456cb59146103515761018f565b806308039f92146101ca57806330dc99c1146101e157806333194c0a1461020a5780633f4ba83a14610235578063533092ef1461024c57806357b0bb73146102775761018f565b3661018f577f88a5966d370b9919b20f3e2c13ff65706f196a4e32cc2c12bf57088f885258743334604051610185929190611cc2565b60405180910390a1005b7f88a5966d370b9919b20f3e2c13ff65706f196a4e32cc2c12bf57088f8852587433346040516101c0929190611cc2565b60405180910390a1005b3480156101d657600080fd5b506101df610535565b005b3480156101ed57600080fd5b5061020860048036038101906102039190611d14565b6106f6565b005b34801561021657600080fd5b5061021f6109d1565b60405161022c9190611d41565b60405180910390f35b34801561024157600080fd5b5061024a6109d7565b005b34801561025857600080fd5b50610261610a79565b60405161026e9190611e76565b60405180910390f35b34801561028357600080fd5b5061028c610ba4565b6040516102999190611e92565b60405180910390f35b3480156102ae57600080fd5b506102b7610bca565b6040516102c49190611ebc565b60405180910390f35b3480156102d957600080fd5b506102e2610be0565b6040516102ef9190611ebc565b60405180910390f35b34801561030457600080fd5b5061030d610bf3565b60405161031a9190611d41565b60405180910390f35b34801561032f57600080fd5b50610338610bf9565b005b34801561034657600080fd5b5061034f610dd5565b005b34801561035d57600080fd5b50610366611056565b005b34801561037457600080fd5b5061037d6110f8565b60405161038a9190611ebc565b60405180910390f35b34801561039f57600080fd5b506103a861110b565b6040516103b59190611e92565b60405180910390f35b3480156103ca57600080fd5b506103d3611131565b005b6103dd6113fa565b005b3480156103eb57600080fd5b506103f4611627565b6040516104019190611e92565b60405180910390f35b34801561041657600080fd5b5061041f61164d565b60405161042c9190611d41565b60405180910390f35b34801561044157600080fd5b5061044a611653565b6040516104579190611ebc565b60405180910390f35b34801561046c57600080fd5b50610475611666565b6040516104829190611d41565b60405180910390f35b34801561049757600080fd5b506104a061166c565b6040516104ad9190611d41565b60405180910390f35b3480156104c257600080fd5b506104cb611672565b6040516104d89190611ebc565b60405180910390f35b3480156104ed57600080fd5b506104f6611685565b6040516105039190611e92565b60405180910390f35b34801561051857600080fd5b50610533600480360381019061052e9190611f03565b6116ab565b005b600760009054906101000a900473ffffffffffffffffffffffffffffffffffffffff1673ffffffffffffffffffffffffffffffffffffffff163373ffffffffffffffffffffffffffffffffffffffff1614806105df5750600073ffffffffffffffffffffffffffffffffffffffff16600760009054906101000a900473ffffffffffffffffffffffffffffffffffffffff1673ffffffffffffffffffffffffffffffffffffffff16145b61061e576040517f08c379a000000000000000000000000000000000000000000000000000000000815260040161061590611fb3565b60405180910390fd5b600060085403610663576040517f08c379a000000000000000000000000000000000000000000000000000000000815260040161065a90612045565b60405180910390fd5b61066b611924565b7f6b711fbe50910ed59fee7dea374c0d0fdeb04e7a8bb26b46050a7b8ae53579e7600354600660009054906101000a900473ffffffffffffffffffffffffffffffffffffffff16600760009054906101000a900473ffffffffffffffffffffffffffffffffffffffff166005546008546040516106ec959493929190612065565b60405180910390a1565b60001515600060019054906101000a900460ff1615151461074c576040517f08c379a00000000000000000000000000000000000000000000000000000000081526004016107439061212a565b60405180910390fd5b600073ffffffffffffffffffffffffffffffffffffffff16600660009054906101000a900473ffffffffffffffffffffffffffffffffffffffff1673ffffffffffffffffffffffffffffffffffffffff16146107dd576040517f08c379a00000000000000000000000000000000000000000000000000000000081526004016107d490612196565b60405180910390fd5b8060800160208101906107f091906121e2565b600073ffffffffffffffffffffffffffffffffffffffff168173ffffffffffffffffffffffffffffffffffffffff160361085f576040517f08c379a00000000000000000000000000000000000000000000000000000000081526004016108569061225b565b60405180910390fd5b610867611924565b81600001602081019061087a91906121e2565b600060026101000a81548173ffffffffffffffffffffffffffffffffffffffff021916908373ffffffffffffffffffffffffffffffffffffffff16021790555033600160006101000a81548173ffffffffffffffffffffffffffffffffffffffff021916908373ffffffffffffffffffffffffffffffffffffffff1602179055508160200135600281905550816040013560038190555081606001602081019061092491906121e2565b600660006101000a81548173ffffffffffffffffffffffffffffffffffffffff021916908373ffffffffffffffffffffffffffffffffffffffff16021790555081608001602081019061097791906121e2565b600760006101000a81548173ffffffffffffffffffffffffffffffffffffffff021916908373ffffffffffffffffffffffffffffffffffffffff1602179055508160a001356004819055508160c001356005819055505050565b60035481565b600060029054906101000a900473ffffffffffffffffffffffffffffffffffffffff1673ffffffffffffffffffffffffffffffffffffffff163373ffffffffffffffffffffffffffffffffffffffff1614610a67576040517f08c379a0000000000000000000000000000000000000000000000000000000008152600401610a5e906122c7565b60405180910390fd5b610a6f61196e565b610a776119b7565b565b610a81611bc4565b6040518061016001604052806003548152602001600660009054906101000a900473ffffffffffffffffffffffffffffffffffffffff1673ffffffffffffffffffffffffffffffffffffffff168152602001600760009054906101000a900473ffffffffffffffffffffffffffffffffffffffff1673ffffffffffffffffffffffffffffffffffffffff168152602001600454815260200160055481526020013073ffffffffffffffffffffffffffffffffffffffff1681526020016008548152602001600960009054906101000a900460ff1615158152602001600960019054906101000a900460ff1615158152602001600960029054906101000a900460ff1615158152602001600960039054906101000a900460ff161515815250905090565b600760009054906101000a900473ffffffffffffffffffffffffffffffffffffffff1681565b60008060009054906101000a900460ff16905090565b600960019054906101000a900460ff1681565b60025481565b600760009054906101000a900473ffffffffffffffffffffffffffffffffffffffff1673ffffffffffffffffffffffffffffffffffffffff163373ffffffffffffffffffffffffffffffffffffffff161480610ca35750600073ffffffffffffffffffffffffffffffffffffffff16600760009054906101000a900473ffffffffffffffffffffffffffffffffffffffff1673ffffffffffffffffffffffffffffffffffffffff16145b610ce2576040517f08c379a0000000000000000000000000000000000000000000000000000000008152600401610cd990611fb3565b60405180910390fd5b600060085403610d27576040517f08c379a0000000000000000000000000000000000000000000000000000000008152600401610d1e90612045565b60405180910390fd5b610d2f611924565b6001600960016101000a81548160ff0219169083151502179055507f51821fb080d4e7c8ad4ea23ea5f3ca50cab58541b28348b2d2613143d9f64356600354600660009054906101000a900473ffffffffffffffffffffffffffffffffffffffff16600760009054906101000a900473ffffffffffffffffffffffffffffffffffffffff16600554600854604051610dcb959493929190612065565b60405180910390a1565b600660009054906101000a900473ffffffffffffffffffffffffffffffffffffffff1673ffffffffffffffffffffffffffffffffffffffff163373ffffffffffffffffffffffffffffffffffffffff1614610e65576040517f08c379a0000000000000000000000000000000000000000000000000000000008152600401610e5c90612359565b60405180910390fd5b60011515600960009054906101000a900460ff16151514610ebb576040517f08c379a0000000000000000000000000000000000000000000000000000000008152600401610eb2906123c5565b60405180910390fd5b60011515600960019054906101000a900460ff16151514610f11576040517f08c379a0000000000000000000000000000000000000000000000000000000008152600401610f0890612431565b60405180910390fd5b60001515600960039054906101000a900460ff16151514610f67576040517f08c379a0000000000000000000000000000000000000000000000000000000008152600401610f5e9061249d565b60405180910390fd5b610f6f611924565b6001600960036101000a81548160ff0219169083151502179055506000600854600554610f9c91906124ec565b9050610fa83382611a19565b7fb49949a4c259cfa0bfeaff880d689ec986d24a1d76c5925edc395580bb380591600354600660009054906101000a900473ffffffffffffffffffffffffffffffffffffffff16600760009054906101000a900473ffffffffffffffffffffffffffffffffffffffff1660055485604051611027959493929190612065565b60405180910390a160011515600960029054906101000a900460ff1615150361105357611052611b5a565b5b50565b600060029054906101000a900473ffffffffffffffffffffffffffffffffffffffff1673ffffffffffffffffffffffffffffffffffffffff163373ffffffffffffffffffffffffffffffffffffffff16146110e6576040517f08c379a00000000000000000000000000000000000000000000000000000000081526004016110dd906122c7565b60405180910390fd5b6110ee611924565b6110f6611b5a565b565b600960039054906101000a900460ff1681565b600060029054906101000a900473ffffffffffffffffffffffffffffffffffffffff1681565b600760009054906101000a900473ffffffffffffffffffffffffffffffffffffffff1673ffffffffffffffffffffffffffffffffffffffff163373ffffffffffffffffffffffffffffffffffffffff1614806111db5750600073ffffffffffffffffffffffffffffffffffffffff16600760009054906101000a900473ffffffffffffffffffffffffffffffffffffffff1673ffffffffffffffffffffffffffffffffffffffff16145b61121a576040517f08c379a000000000000000000000000000000000000000000000000000000000815260040161121190611fb3565b60405180910390fd5b60011515600960009054906101000a900460ff16151514611270576040517f08c379a0000000000000000000000000000000000000000000000000000000008152600401611267906123c5565b60405180910390fd5b60011515600960019054906101000a900460ff161515146112c6576040517f08c379a00000000000000000000000000000000000000000000000000000000081526004016112bd90612431565b60405180910390fd5b60001515600960029054906101000a900460ff1615151461131c576040517f08c379a00000000000000000000000000000000000000000000000000000000081526004016113139061256c565b60405180910390fd5b611324611924565b6001600960026101000a81548160ff02191690831515021790555061134b33600854611a19565b7f2f56587b9b54f5810edd15936c9024a3fd1132a15867058c16e1a3778583b493600354600660009054906101000a900473ffffffffffffffffffffffffffffffffffffffff16600760009054906101000a900473ffffffffffffffffffffffffffffffffffffffff166005546008546040516113cc959493929190612065565b60405180910390a160011515600960039054906101000a900460ff161515036113f8576113f7611b5a565b5b565b600760009054906101000a900473ffffffffffffffffffffffffffffffffffffffff1673ffffffffffffffffffffffffffffffffffffffff163373ffffffffffffffffffffffffffffffffffffffff1614806114a45750600073ffffffffffffffffffffffffffffffffffffffff16600760009054906101000a900473ffffffffffffffffffffffffffffffffffffffff1673ffffffffffffffffffffffffffffffffffffffff16145b6114e3576040517f08c379a00000000000000000000000000000000000000000000000000000000081526004016114da90611fb3565b60405180910390fd5b60001515600960009054906101000a900460ff16151514611539576040517f08c379a0000000000000000000000000000000000000000000000000000000008152600401611530906125d8565b60405180910390fd5b600554341461157d576040517f08c379a000000000000000000000000000000000000000000000000000000000815260040161157490612644565b60405180910390fd5b611585611924565b6001600960006101000a81548160ff0219169083151502179055507fa010dabc4b9125ef62c52003e2ce0f7fa27c293e1f10d567d09ff41c6b172360600354600660009054906101000a900473ffffffffffffffffffffffffffffffffffffffff16600760009054906101000a900473ffffffffffffffffffffffffffffffffffffffff1660055460405161161d9493929190612664565b60405180910390a1565b600160009054906101000a900473ffffffffffffffffffffffffffffffffffffffff1681565b60055481565b600960029054906101000a900460ff1681565b60085481565b60045481565b600960009054906101000a900460ff1681565b600660009054906101000a900473ffffffffffffffffffffffffffffffffffffffff1681565b60045442116116ef576040517f08c379a00000000000000000000000000000000000000000000000000000000081526004016116e6906126f5565b60405180910390fd5b600660009054906101000a900473ffffffffffffffffffffffffffffffffffffffff1673ffffffffffffffffffffffffffffffffffffffff163373ffffffffffffffffffffffffffffffffffffffff161461177f576040517f08c379a000000000000000000000000000000000000000000000000000000000815260040161177690612359565b60405180910390fd5b60011515600960009054906101000a900460ff161515146117d5576040517f08c379a00000000000000000000000000000000000000000000000000000000081526004016117cc906123c5565b60405180910390fd5b60001515600960019054906101000a900460ff1615151461182b576040517f08c379a000000000000000000000000000000000000000000000000000000000815260040161182290612787565b60405180910390fd5b808060001115801561183f57506005548111155b61187e576040517f08c379a0000000000000000000000000000000000000000000000000000000008152600401611875906127f3565b60405180910390fd5b611886611924565b60006008549050826008819055507f0561865f6371518af1b2700ac4a68fe20d6a5d947dfa6db77cac69a64620d1e1600354600660009054906101000a900473ffffffffffffffffffffffffffffffffffffffff16600760009054906101000a900473ffffffffffffffffffffffffffffffffffffffff166005548560085460405161191796959493929190612813565b60405180910390a1505050565b61192c610bca565b1561196c576040517f08c379a0000000000000000000000000000000000000000000000000000000008152600401611963906128c0565b60405180910390fd5b565b611976610bca565b6119b5576040517f08c379a00000000000000000000000000000000000000000000000000000000081526004016119ac9061292c565b60405180910390fd5b565b6119bf61196e565b60008060006101000a81548160ff0219169083151502179055507f5db9ee0a495bf2e6ff9c91a7834c1ba4fdd244a5e8aa4e537bd38aeae4b073aa611a02611bbc565b604051611a0f9190611e92565b60405180910390a1565b600047905081811015611a68576000611a67576040517f08c379a0000000000000000000000000000000000000000000000000000000008152600401611a5e90612998565b60405180910390fd5b5b60008373ffffffffffffffffffffffffffffffffffffffff1683604051611a8e906129e9565b60006040518083038185875af1925050503d8060008114611acb576040519150601f19603f3d011682016040523d82523d6000602084013e611ad0565b606091505b5050905080611b54577f3506b32cea6b36a739c1c2a71a9e1b3d6222104389c07219059fa6eb6d2e05638484604051611b0a929190611cc2565b60405180910390a16000611b53576040517f08c379a0000000000000000000000000000000000000000000000000000000008152600401611b4a90612a4a565b60405180910390fd5b5b50505050565b611b62611924565b60016000806101000a81548160ff0219169083151502179055507f62e78cea01bee320cd4e420270b5ea74000d11b0c9f74754ebdbfc544b05a258611ba5611bbc565b604051611bb29190611e92565b60405180910390a1565b600033905090565b60405180610160016040528060008152602001600073ffffffffffffffffffffffffffffffffffffffff168152602001600073ffffffffffffffffffffffffffffffffffffffff1681526020016000815260200160008152602001600073ffffffffffffffffffffffffffffffffffffffff168152602001600081526020016000151581526020016000151581526020016000151581526020016000151581525090565b600073ffffffffffffffffffffffffffffffffffffffff82169050919050565b6000611c9382611c68565b9050919050565b611ca381611c88565b82525050565b6000819050919050565b611cbc81611ca9565b82525050565b6000604082019050611cd76000830185611c9a565b611ce46020830184611cb3565b9392505050565b600080fd5b600080fd5b600060e08284031215611d0b57611d0a611cf0565b5b81905092915050565b600060e08284031215611d2a57611d29611ceb565b5b6000611d3884828501611cf5565b91505092915050565b6000602082019050611d566000830184611cb3565b92915050565b611d6581611ca9565b82525050565b611d7481611c88565b82525050565b60008115159050919050565b611d8f81611d7a565b82525050565b61016082016000820151611dac6000850182611d5c565b506020820151611dbf6020850182611d6b565b506040820151611dd26040850182611d6b565b506060820151611de56060850182611d5c565b506080820151611df86080850182611d5c565b5060a0820151611e0b60a0850182611d6b565b5060c0820151611e1e60c0850182611d5c565b5060e0820151611e3160e0850182611d86565b50610100820151611e46610100850182611d86565b50610120820151611e5b610120850182611d86565b50610140820151611e70610140850182611d86565b50505050565b600061016082019050611e8c6000830184611d95565b92915050565b6000602082019050611ea76000830184611c9a565b92915050565b611eb681611d7a565b82525050565b6000602082019050611ed16000830184611ead565b92915050565b611ee081611ca9565b8114611eeb57600080fd5b50565b600081359050611efd81611ed7565b92915050565b600060208284031215611f1957611f18611ceb565b5b6000611f2784828501611eee565b91505092915050565b600082825260208201905092915050565b7f5468652063616c6c6572206973206e6f74207468652070726f7065727479207260008201527f656e746572000000000000000000000000000000000000000000000000000000602082015250565b6000611f9d602583611f30565b9150611fa882611f41565b604082019050919050565b60006020820190508181036000830152611fcc81611f90565b9050919050565b7f4e6f20616d6f756e7420746f2072657475726e20686173206265656e2070726f60008201527f706f736564000000000000000000000000000000000000000000000000000000602082015250565b600061202f602583611f30565b915061203a82611fd3565b604082019050919050565b6000602082019050818103600083015261205e81612022565b9050919050565b600060a08201905061207a6000830188611cb3565b6120876020830187611c9a565b6120946040830186611c9a565b6120a16060830185611cb3565b6120ae6080830184611cb3565b9695505050505050565b7f54686520696d706c656d656e746174696f6e20636f6e74726163742063616e2760008201527f7420626520696e697469616c697a656400000000000000000000000000000000602082015250565b6000612114603083611f30565b915061211f826120b8565b604082019050919050565b6000602082019050818103600083015261214381612107565b9050919050565b7f436f6e747261637420616c726561647920696e697469616c697a656400000000600082015250565b6000612180601c83611f30565b915061218b8261214a565b602082019050919050565b600060208201905081810360008301526121af81612173565b9050919050565b6121bf81611c88565b81146121ca57600080fd5b50565b6000813590506121dc816121b6565b92915050565b6000602082840312156121f8576121f7611ceb565b5b6000612206848285016121cd565b91505092915050565b7f52656e7465722061646472657373206e65656465640000000000000000000000600082015250565b6000612245601583611f30565b91506122508261220f565b602082019050919050565b6000602082019050818103600083015261227481612238565b9050919050565b7f43616c6c6572206973206e6f74207468652061646d696e000000000000000000600082015250565b60006122b1601783611f30565b91506122bc8261227b565b602082019050919050565b600060208201905081810360008301526122e0816122a4565b9050919050565b7f5468652063616c6c6572206973206e6f74207468652070726f7065727479206f60008201527f776e657200000000000000000000000000000000000000000000000000000000602082015250565b6000612343602483611f30565b915061234e826122e7565b604082019050919050565b6000602082019050818103600083015261237281612336565b9050919050565b7f4e6f206465706f73697420686173206265656e2073746f726564000000000000600082015250565b60006123af601a83611f30565b91506123ba82612379565b602082019050919050565b600060208201905081810360008301526123de816123a2565b9050919050565b7f4e6f20616d6f756e7420686173206265656e2061636365707465640000000000600082015250565b600061241b601b83611f30565b9150612426826123e5565b602082019050919050565b6000602082019050818103600083015261244a8161240e565b9050919050565b7f4f776e657220616c726561647920636c61696d656420686973206368756e6b00600082015250565b6000612487601f83611f30565b915061249282612451565b602082019050919050565b600060208201905081810360008301526124b68161247a565b9050919050565b7f4e487b7100000000000000000000000000000000000000000000000000000000600052601160045260246000fd5b60006124f782611ca9565b915061250283611ca9565b925082820390508181111561251a576125196124bd565b5b92915050565b7f52656e74657220616c726561647920636c61696d656420686973206368756e6b600082015250565b6000612556602083611f30565b915061256182612520565b602082019050919050565b6000602082019050818103600083015261258581612549565b9050919050565b7f546865206465706f73697420697320616c72656164792073746f726564000000600082015250565b60006125c2601d83611f30565b91506125cd8261258c565b602082019050919050565b600060208201905081810360008301526125f1816125b5565b9050919050565b7f496e636f727265637420616d6f756e742073656e740000000000000000000000600082015250565b600061262e601583611f30565b9150612639826125f8565b602082019050919050565b6000602082019050818103600083015261265d81612621565b9050919050565b60006080820190506126796000830187611cb3565b6126866020830186611c9a565b6126936040830185611c9a565b6126a06060830184611cb3565b95945050505050565b7f52656e74616c20706572696f64206e6f7420656e646564000000000000000000600082015250565b60006126df601783611f30565b91506126ea826126a9565b602082019050919050565b6000602082019050818103600083015261270e816126d2565b9050919050565b7f416e20616d6f756e742068617320616c7265616479206265656e20616363657060008201527f7465640000000000000000000000000000000000000000000000000000000000602082015250565b6000612771602383611f30565b915061277c82612715565b604082019050919050565b600060208201905081810360008301526127a081612764565b9050919050565b7f496e636f72726563742070726f706f73656420616d6f756e7400000000000000600082015250565b60006127dd601983611f30565b91506127e8826127a7565b602082019050919050565b6000602082019050818103600083015261280c816127d0565b9050919050565b600060c0820190506128286000830189611cb3565b6128356020830188611c9a565b6128426040830187611c9a565b61284f6060830186611cb3565b61285c6080830185611cb3565b61286960a0830184611cb3565b979650505050505050565b7f5061757361626c653a2070617573656400000000000000000000000000000000600082015250565b60006128aa601083611f30565b91506128b582612874565b602082019050919050565b600060208201905081810360008301526128d98161289d565b9050919050565b7f5061757361626c653a206e6f7420706175736564000000000000000000000000600082015250565b6000612916601483611f30565b9150612921826128e0565b602082019050919050565b6000602082019050818103600083015261294581612909565b9050919050565b7f4e6f7420656e6f75676820696e20636f6e74726163742062616c616e63650000600082015250565b6000612982601e83611f30565b915061298d8261294c565b602082019050919050565b600060208201905081810360008301526129b181612975565b9050919050565b600081905092915050565b50565b60006129d36000836129b8565b91506129de826129c3565b600082019050919050565b60006129f4826129c6565b9150819050919050565b7f5472616e73666572206661696c65642e00000000000000000000000000000000600082015250565b6000612a34601083611f30565b9150612a3f826129fe565b602082019050919050565b60006020820190508181036000830152612a6381612a27565b905091905056fea2646970667358221220490402b39bf1ed0950a07fcbbfa486fde40acfb3a7798a530578bf48af7ea05a64736f6c63430008110033",
  "linkReferences": {},
  "deployedLinkReferences": {}
}